{
  "contractName": "MagnetLinkBillboard",
  "abi": [
    {
      "inputs": [],
      "stateMutability": "nonpayable",
      "type": "constructor"
    },
    {
      "anonymous": false,
      "inputs": [
        {
          "indexed": true,
          "internalType": "uint256",
          "name": "seedId",
          "type": "uint256"
        },
        {
          "indexed": true,
          "internalType": "address payable",
          "name": "seedOwner",
          "type": "address"
        },
        {
          "indexed": false,
          "internalType": "string",
          "name": "seedName",
          "type": "string"
        },
        {
          "indexed": false,
          "internalType": "string",
          "name": "keyWords",
          "type": "string"
        },
        {
          "indexed": false,
          "internalType": "string",
          "name": "seedDescription",
          "type": "string"
        },
        {
          "indexed": false,
          "internalType": "uint256",
          "name": "chargeAmount",
          "type": "uint256"
        },
        {
          "indexed": false,
          "internalType": "uint256",
          "name": "endorseAmount",
          "type": "uint256"
        }
      ],
      "name": "SeedDownloaded",
      "type": "event"
    },
    {
      "anonymous": false,
      "inputs": [
        {
          "indexed": true,
          "internalType": "uint256",
          "name": "seedId",
          "type": "uint256"
        },
        {
          "indexed": true,
          "internalType": "address payable",
          "name": "seedOwner",
          "type": "address"
        },
        {
          "indexed": false,
          "internalType": "string",
          "name": "seedName",
          "type": "string"
        },
        {
          "indexed": false,
          "internalType": "string",
          "name": "keyWords",
          "type": "string"
        },
        {
          "indexed": false,
          "internalType": "string",
          "name": "seedDescription",
          "type": "string"
        },
        {
          "indexed": false,
          "internalType": "uint256",
          "name": "chargeAmount",
          "type": "uint256"
        },
        {
          "indexed": false,
          "internalType": "uint256",
          "name": "endorseAmount",
          "type": "uint256"
        }
      ],
      "name": "SeedUploaded",
      "type": "event"
    },
    {
      "inputs": [
        {
          "internalType": "address",
          "name": "",
          "type": "address"
        },
        {
          "internalType": "uint256",
          "name": "",
          "type": "uint256"
        }
      ],
      "name": "OwnerSeedsSummary",
      "outputs": [
        {
          "internalType": "uint256",
          "name": "",
          "type": "uint256"
        }
      ],
      "stateMutability": "view",
      "type": "function",
      "constant": true
    },
    {
      "inputs": [
        {
          "internalType": "uint256",
          "name": "",
          "type": "uint256"
        },
        {
          "internalType": "uint256",
          "name": "",
          "type": "uint256"
        }
      ],
      "name": "SeedsOwnerSummary",
      "outputs": [
        {
          "internalType": "address",
          "name": "",
          "type": "address"
        }
      ],
      "stateMutability": "view",
      "type": "function",
      "constant": true
    },
    {
      "inputs": [],
      "name": "billboardName",
      "outputs": [
        {
          "internalType": "string",
          "name": "",
          "type": "string"
        }
      ],
      "stateMutability": "view",
      "type": "function",
      "constant": true
    },
    {
      "inputs": [
        {
          "internalType": "address",
          "name": "",
          "type": "address"
        },
        {
          "internalType": "uint256",
          "name": "",
          "type": "uint256"
        }
      ],
      "name": "endorseableSeedsSummary",
      "outputs": [
        {
          "internalType": "uint256",
          "name": "",
          "type": "uint256"
        }
      ],
      "stateMutability": "view",
      "type": "function",
      "constant": true
    },
    {
      "inputs": [
        {
          "internalType": "uint256",
          "name": "",
          "type": "uint256"
        }
      ],
      "name": "magnetItemsPublicInfo",
      "outputs": [
        {
          "internalType": "string",
          "name": "seedName",
          "type": "string"
        },
        {
          "internalType": "string",
          "name": "keyWords",
          "type": "string"
        },
        {
          "internalType": "uint256",
          "name": "chargeAmount",
          "type": "uint256"
        },
        {
          "internalType": "uint256",
          "name": "seedId",
          "type": "uint256"
        },
        {
          "internalType": "uint256",
          "name": "endorseAmount",
          "type": "uint256"
        },
        {
          "internalType": "address payable",
          "name": "seedOwner",
          "type": "address"
        },
        {
          "internalType": "string",
          "name": "seedDescription",
          "type": "string"
        }
      ],
      "stateMutability": "view",
      "type": "function",
      "constant": true
    },
    {
      "inputs": [],
      "name": "seedAmount",
      "outputs": [
        {
          "internalType": "uint256",
          "name": "",
          "type": "uint256"
        }
      ],
      "stateMutability": "view",
      "type": "function",
      "constant": true
    },
    {
      "inputs": [
        {
          "internalType": "address",
          "name": "",
          "type": "address"
        }
      ],
      "name": "uploadAndDownloadCounter",
      "outputs": [
        {
          "internalType": "uint256",
          "name": "",
          "type": "uint256"
        }
      ],
      "stateMutability": "view",
      "type": "function",
      "constant": true
    },
    {
      "inputs": [
        {
          "internalType": "string",
          "name": "_seedName",
          "type": "string"
        },
        {
          "internalType": "string",
          "name": "_seedLink",
          "type": "string"
        },
        {
          "internalType": "string",
          "name": "_keyWords",
          "type": "string"
        },
        {
          "internalType": "uint256",
          "name": "_chargeAmount",
          "type": "uint256"
        },
        {
          "internalType": "string",
          "name": "_seedDescription",
          "type": "string"
        }
      ],
      "name": "upload",
      "outputs": [],
      "stateMutability": "nonpayable",
      "type": "function"
    },
    {
      "inputs": [
        {
          "internalType": "uint256",
          "name": "_seedId",
          "type": "uint256"
        }
      ],
      "name": "getLink",
      "outputs": [
        {
          "internalType": "string",
          "name": "",
          "type": "string"
        }
      ],
      "stateMutability": "view",
      "type": "function",
      "constant": true
    },
    {
      "inputs": [
        {
          "internalType": "uint256",
          "name": "_seedId",
          "type": "uint256"
        }
      ],
      "name": "download",
      "outputs": [
        {
          "internalType": "bool",
          "name": "",
          "type": "bool"
        }
      ],
      "stateMutability": "payable",
      "type": "function",
      "payable": true
    },
    {
      "inputs": [
        {
          "internalType": "uint256",
          "name": "_seedId",
          "type": "uint256"
        }
      ],
      "name": "endorse",
      "outputs": [],
      "stateMutability": "nonpayable",
      "type": "function"
    },
    {
      "inputs": [],
      "name": "contractBalance",
      "outputs": [
        {
          "internalType": "uint256",
          "name": "contractEth",
          "type": "uint256"
        }
      ],
      "stateMutability": "view",
      "type": "function",
      "constant": true
    },
    {
      "inputs": [
        {
          "internalType": "uint256",
          "name": "_seedId",
          "type": "uint256"
        }
      ],
      "name": "checkSeedOwner",
      "outputs": [
        {
          "internalType": "address[]",
          "name": "",
          "type": "address[]"
        }
      ],
      "stateMutability": "view",
      "type": "function",
      "constant": true
    },
    {
      "inputs": [],
      "name": "checkUserSeeds",
      "outputs": [
        {
          "internalType": "uint256[]",
          "name": "",
          "type": "uint256[]"
        }
      ],
      "stateMutability": "view",
      "type": "function",
      "constant": true
    },
    {
      "inputs": [],
      "name": "checkSeedOwnerBalance",
      "outputs": [
        {
          "internalType": "uint256",
          "name": "SeedOwnerBalance",
          "type": "uint256"
        }
      ],
      "stateMutability": "view",
      "type": "function",
      "constant": true
    }
  ],
  "bytecode": "0x608060405260405180602001604052806000815250600690805190602001906200002b92919062000093565b5060006007553480156200003e57600080fd5b506040518060400160405280601581526020017f4d61676e6574204c696e6b2042696c6c626f6172640000000000000000000000815250600590805190602001906200008c92919062000093565b5062000149565b828054600181600116156101000203166002900490600052602060002090601f016020900481019282620000cb576000855562000117565b82601f10620000e657805160ff191683800117855562000117565b8280016001018555821562000117579182015b8281111562000116578251825591602001919060010190620000f9565b5b5090506200012691906200012a565b5090565b5b80821115620001455760008160009055506001016200012b565b5090565b61294580620001596000396000f3fe6080604052600436106100e85760003560e01c806387b9c24d1161008a578063be6851a511610059578063be6851a5146106b7578063c5774a3f1461094e578063cd5eb13314610979578063fefe995f14610a09576100e8565b806387b9c24d1461054c5780638b7afe2e14610590578063aec2e53b146105bb578063b0ee9fc314610627576100e8565b80634b9f52e5116100c65780634b9f52e51461039a5780634cc434d5146103ff5780635836a8511461046e57806374cf6d6c146104dd576100e8565b80631f817ede146100ed5780631fcfe3eb146102ab578063393b6df3146102e6575b600080fd5b3480156100f957600080fd5b506101266004803603602081101561011057600080fd5b8101908080359060200190929190505050610a34565b6040518080602001806020018881526020018781526020018681526020018573ffffffffffffffffffffffffffffffffffffffff1681526020018060200184810384528b818151815260200191508051906020019080838360005b8381101561019c578082015181840152602081019050610181565b50505050905090810190601f1680156101c95780820380516001836020036101000a031916815260200191505b5084810383528a818151815260200191508051906020019080838360005b838110156102025780820151818401526020810190506101e7565b50505050905090810190601f16801561022f5780820380516001836020036101000a031916815260200191505b50848103825285818151815260200191508051906020019080838360005b8381101561026857808201518184015260208101905061024d565b50505050905090810190601f1680156102955780820380516001836020036101000a031916815260200191505b509a505050505050505050505060405180910390f35b3480156102b757600080fd5b506102e4600480360360208110156102ce57600080fd5b8101908080359060200190929190505050610c5e565b005b3480156102f257600080fd5b5061031f6004803603602081101561030957600080fd5b8101908080359060200190929190505050610f76565b6040518080602001828103825283818151815260200191508051906020019080838360005b8381101561035f578082015181840152602081019050610344565b50505050905090810190601f16801561038c5780820380516001836020036101000a031916815260200191505b509250505060405180910390f35b3480156103a657600080fd5b506103e9600480360360208110156103bd57600080fd5b81019080803573ffffffffffffffffffffffffffffffffffffffff16906020019092919050505061102b565b6040518082815260200191505060405180910390f35b34801561040b57600080fd5b506104426004803603604081101561042257600080fd5b810190808035906020019092919080359060200190929190505050611043565b604051808273ffffffffffffffffffffffffffffffffffffffff16815260200191505060405180910390f35b34801561047a57600080fd5b506104c76004803603604081101561049157600080fd5b81019080803573ffffffffffffffffffffffffffffffffffffffff16906020019092919080359060200190929190505050611091565b6040518082815260200191505060405180910390f35b3480156104e957600080fd5b506105366004803603604081101561050057600080fd5b81019080803573ffffffffffffffffffffffffffffffffffffffff169060200190929190803590602001909291905050506110c2565b6040518082815260200191505060405180910390f35b6105786004803603602081101561056257600080fd5b81019080803590602001909291905050506110f3565b60405180821515815260200191505060405180910390f35b34801561059c57600080fd5b506105a5611ac1565b6040518082815260200191505060405180910390f35b3480156105c757600080fd5b506105d0611ac9565b6040518080602001828103825283818151815260200191508051906020019060200280838360005b838110156106135780820151818401526020810190506105f8565b505050509050019250505060405180910390f35b34801561063357600080fd5b5061063c611b5e565b6040518080602001828103825283818151815260200191508051906020019080838360005b8381101561067c578082015181840152602081019050610661565b50505050905090810190601f1680156106a95780820380516001836020036101000a031916815260200191505b509250505060405180910390f35b3480156106c357600080fd5b5061094c600480360360a08110156106da57600080fd5b81019080803590602001906401000000008111156106f757600080fd5b82018360208201111561070957600080fd5b8035906020019184600183028401116401000000008311171561072b57600080fd5b91908080601f016020809104026020016040519081016040528093929190818152602001838380828437600081840152601f19601f8201169050808301925050505050505091929192908035906020019064010000000081111561078e57600080fd5b8201836020820111156107a057600080fd5b803590602001918460018302840111640100000000831117156107c257600080fd5b91908080601f016020809104026020016040519081016040528093929190818152602001838380828437600081840152601f19601f8201169050808301925050505050505091929192908035906020019064010000000081111561082557600080fd5b82018360208201111561083757600080fd5b8035906020019184600183028401116401000000008311171561085957600080fd5b91908080601f016020809104026020016040519081016040528093929190818152602001838380828437600081840152601f19601f82011690508083019250505050505050919291929080359060200190929190803590602001906401000000008111156108c657600080fd5b8201836020820111156108d857600080fd5b803590602001918460018302840111640100000000831117156108fa57600080fd5b91908080601f016020809104026020016040519081016040528093929190818152602001838380828437600081840152601f19601f820116905080830192505050505050509192919290505050611bfc565b005b34801561095a57600080fd5b50610963612485565b6040518082815260200191505060405180910390f35b34801561098557600080fd5b506109b26004803603602081101561099c57600080fd5b810190808035906020019092919050505061248b565b6040518080602001828103825283818151815260200191508051906020019060200280838360005b838110156109f55780820151818401526020810190506109da565b505050509050019250505060405180910390f35b348015610a1557600080fd5b50610a1e61252c565b6040518082815260200191505060405180910390f35b6000602052806000526040600020600091509050806000018054600181600116156101000203166002900480601f016020809104026020016040519081016040528092919081815260200182805460018160011615610100020316600290048015610ae05780601f10610ab557610100808354040283529160200191610ae0565b820191906000526020600020905b815481529060010190602001808311610ac357829003601f168201915b505050505090806001018054600181600116156101000203166002900480601f016020809104026020016040519081016040528092919081815260200182805460018160011615610100020316600290048015610b7e5780601f10610b5357610100808354040283529160200191610b7e565b820191906000526020600020905b815481529060010190602001808311610b6157829003601f168201915b5050505050908060020154908060030154908060040154908060050160009054906101000a900473ffffffffffffffffffffffffffffffffffffffff1690806006018054600181600116156101000203166002900480601f016020809104026020016040519081016040528092919081815260200182805460018160011615610100020316600290048015610c545780601f10610c2957610100808354040283529160200191610c54565b820191906000526020600020905b815481529060010190602001808311610c3757829003601f168201915b5050505050905087565b600081118015610c7057506007548111155b610ce2576040517f08c379a00000000000000000000000000000000000000000000000000000000081526004018080602001828103825260138152602001807f7365656420646f6573206e6f742065786973740000000000000000000000000081525060200191505060405180910390fd5b6000805b600460003373ffffffffffffffffffffffffffffffffffffffff1673ffffffffffffffffffffffffffffffffffffffff16815260200190815260200160002080549050811015610f1b5782600460003373ffffffffffffffffffffffffffffffffffffffff1673ffffffffffffffffffffffffffffffffffffffff1681526020019081526020016000208281548110610d7b57fe5b90600052602060002001541415610f0e5760008084815260200190815260200160002060050160009054906101000a900473ffffffffffffffffffffffffffffffffffffffff1673ffffffffffffffffffffffffffffffffffffffff163373ffffffffffffffffffffffffffffffffffffffff161415610e46576040517f08c379a00000000000000000000000000000000000000000000000000000000081526004018080602001828103825260298152602001806128c06029913960400191505060405180910390fd5b610e4f8161254b565b60008084815260200190815260200160002060050160009054906101000a900473ffffffffffffffffffffffffffffffffffffffff1673ffffffffffffffffffffffffffffffffffffffff166108fc64174876e800610eac611ac1565b81610eb357fe5b049081150290604051600060405180830381858888f19350505050158015610edf573d6000803e3d6000fd5b506000808481526020019081526020016000206004016000815480929190600101919050555060019150610f1b565b8080600101915050610ce6565b5080610f72576040517f08c379a00000000000000000000000000000000000000000000000000000000081526004018080602001828103825260478152602001806128796047913960600191505060405180910390fd5b5050565b6060600160008381526020019081526020016000208054600181600116156101000203166002900480601f01602080910402602001604051908101604052809291908181526020018280546001816001161561010002031660029004801561101f5780601f10610ff45761010080835404028352916020019161101f565b820191906000526020600020905b81548152906001019060200180831161100257829003601f168201915b50505050509050919050565b60086020528060005260406000206000915090505481565b6003602052816000526040600020818154811061105f57600080fd5b906000526020600020016000915091509054906101000a900473ffffffffffffffffffffffffffffffffffffffff1681565b600260205281600052604060002081815481106110ad57600080fd5b90600052602060002001600091509150505481565b600460205281600052604060002081815481106110de57600080fd5b90600052602060002001600091509150505481565b6000806000905060008060008581526020019081526020016000206040518060e0016040529081600082018054600181600116156101000203166002900480601f0160208091040260200160405190810160405280929190818152602001828054600181600116156101000203166002900480156111b25780601f10611187576101008083540402835291602001916111b2565b820191906000526020600020905b81548152906001019060200180831161119557829003601f168201915b50505050508152602001600182018054600181600116156101000203166002900480601f0160208091040260200160405190810160405280929190818152602001828054600181600116156101000203166002900480156112545780601f1061122957610100808354040283529160200191611254565b820191906000526020600020905b81548152906001019060200180831161123757829003601f168201915b505050505081526020016002820154815260200160038201548152602001600482015481526020016005820160009054906101000a900473ffffffffffffffffffffffffffffffffffffffff1673ffffffffffffffffffffffffffffffffffffffff1673ffffffffffffffffffffffffffffffffffffffff168152602001600682018054600181600116156101000203166002900480601f01602080910402602001604051908101604052809291908181526020018280546001816001161561010002031660029004801561136a5780601f1061133f5761010080835404028352916020019161136a565b820191906000526020600020905b81548152906001019060200180831161134d57829003601f168201915b505050505081525050905060008160a001519050600082606001511180156113985750600754826060015111155b61140a576040517f08c379a00000000000000000000000000000000000000000000000000000000081526004018080602001828103825260138152602001807f7365656420646f6573206e6f742065786973740000000000000000000000000081525060200191505060405180910390fd5b8160400151341015611484576040517f08c379a00000000000000000000000000000000000000000000000000000000081526004018080602001828103825260128152602001807f696e73756666696369656e74206574686572000000000000000000000000000081525060200191505060405180910390fd5b8073ffffffffffffffffffffffffffffffffffffffff163373ffffffffffffffffffffffffffffffffffffffff161415611509576040517f08c379a00000000000000000000000000000000000000000000000000000000081526004018080602001828103825260278152602001806128e96027913960400191505060405180910390fd5b6000805b600260003373ffffffffffffffffffffffffffffffffffffffff1673ffffffffffffffffffffffffffffffffffffffff168152602001908152602001600020805490508160ff1610156116165786600260003373ffffffffffffffffffffffffffffffffffffffff1673ffffffffffffffffffffffffffffffffffffffff1681526020019081526020016000208260ff16815481106115a857fe5b9060005260206000200154141561160957600191503373ffffffffffffffffffffffffffffffffffffffff166108fc349081150290604051600060405180830381858888f19350505050158015611603573d6000803e3d6000fd5b50611616565b808060010191505061150d565b50801561168b576040517f08c379a00000000000000000000000000000000000000000000000000000000081526004018080602001828103825260198152602001807f796f75206861766520616c726561647920646f776e6c6f61640000000000000081525060200191505060405180910390fd5b8173ffffffffffffffffffffffffffffffffffffffff166108fc600a6009866040015102816116b657fe5b049081150290604051600060405180830381858888f193505050501580156116e2573d6000803e3d6000fd5b503373ffffffffffffffffffffffffffffffffffffffff166108fc846040015134039081150290604051600060405180830381858888f1935050505015801561172f573d6000803e3d6000fd5b50600260003373ffffffffffffffffffffffffffffffffffffffff1673ffffffffffffffffffffffffffffffffffffffff16815260200190815260200160002060008088815260200190815260200160002060030154908060018154018082558091505060019003906000526020600020016000909190919091505560036000806000898152602001908152602001600020600301548152602001908152602001600020339080600181540180825580915050600190039060005260206000200160009091909190916101000a81548173ffffffffffffffffffffffffffffffffffffffff021916908373ffffffffffffffffffffffffffffffffffffffff160217905550600460003373ffffffffffffffffffffffffffffffffffffffff1673ffffffffffffffffffffffffffffffffffffffff1681526020019081526020016000206000808881526020019081526020016000206003015490806001815401808255809150506001900390600052602060002001600090919091909150556001600860003373ffffffffffffffffffffffffffffffffffffffff1673ffffffffffffffffffffffffffffffffffffffff168152602001908152602001600020600082825401925050819055503373ffffffffffffffffffffffffffffffffffffffff166007547f3480b392c1ebbe9a8d9a74ec29dcbb15d1cb98e7581ca07706638f645f65ec17856000015186602001518760c001518860400151896080015160405180806020018060200180602001868152602001858152602001848103845289818151815260200191508051906020019080838360005b838110156119a557808201518184015260208101905061198a565b50505050905090810190601f1680156119d25780820380516001836020036101000a031916815260200191505b50848103835288818151815260200191508051906020019080838360005b83811015611a0b5780820151818401526020810190506119f0565b50505050905090810190601f168015611a385780820380516001836020036101000a031916815260200191505b50848103825287818151815260200191508051906020019080838360005b83811015611a71578082015181840152602081019050611a56565b50505050905090810190601f168015611a9e5780820380516001836020036101000a031916815260200191505b509850505050505050505060405180910390a36001935083945050505050919050565b600047905090565b6060600260003373ffffffffffffffffffffffffffffffffffffffff1673ffffffffffffffffffffffffffffffffffffffff168152602001908152602001600020805480602002602001604051908101604052809291908181526020018280548015611b5457602002820191906000526020600020905b815481526020019060010190808311611b40575b5050505050905090565b60058054600181600116156101000203166002900480601f016020809104026020016040519081016040528092919081815260200182805460018160011615610100020316600290048015611bf45780601f10611bc957610100808354040283529160200191611bf4565b820191906000526020600020905b815481529060010190602001808311611bd757829003601f168201915b505050505081565b60066040518082805460018160011615610100020316600290048015611c595780601f10611c37576101008083540402835291820191611c59565b820191906000526020600020905b815481529060010190602001808311611c45575b5050915050604051809103902085805190602001201415611ce2576040517f08c379a00000000000000000000000000000000000000000000000000000000081526004018080602001828103825260108152602001807f696e76616c696420736565644e616d650000000000000000000000000000000081525060200191505060405180910390fd5b60066040518082805460018160011615610100020316600290048015611d3f5780601f10611d1d576101008083540402835291820191611d3f565b820191906000526020600020905b815481529060010190602001808311611d2b575b5050915050604051809103902084805190602001201415611dc8576040517f08c379a00000000000000000000000000000000000000000000000000000000081526004018080602001828103825260108152602001807f696e76616c696420736565644c696e6b0000000000000000000000000000000081525060200191505060405180910390fd5b60066040518082805460018160011615610100020316600290048015611e255780601f10611e03576101008083540402835291820191611e25565b820191906000526020600020905b815481529060010190602001808311611e11575b5050915050604051809103902083805190602001201415611eae576040517f08c379a00000000000000000000000000000000000000000000000000000000081526004018080602001828103825260108152602001807f696e76616c6964206b6579576f7264730000000000000000000000000000000081525060200191505060405180910390fd5b60066040518082805460018160011615610100020316600290048015611f0b5780601f10611ee9576101008083540402835291820191611f0b565b820191906000526020600020905b815481529060010190602001808311611ef7575b5050915050604051809103902081805190602001201415611f94576040517f08c379a00000000000000000000000000000000000000000000000000000000081526004018080602001828103825260178152602001807f696e76616c696420736565644465736372697074696f6e00000000000000000081525060200191505060405180910390fd5b6000821015611fa257600080fd5b6001600760008282540192505081905550600060075490506040518060e00160405280878152602001858152602001848152602001828152602001600081526020013373ffffffffffffffffffffffffffffffffffffffff1681526020018381525060008083815260200190815260200160002060008201518160000190805190602001906120329291906127cd565b50602082015181600101908051906020019061204f9291906127cd565b5060408201518160020155606082015181600301556080820151816004015560a08201518160050160006101000a81548173ffffffffffffffffffffffffffffffffffffffff021916908373ffffffffffffffffffffffffffffffffffffffff16021790555060c08201518160060190805190602001906120d19291906127cd565b50905050846001600083815260200190815260200160002090805190602001906120fc9291906127cd565b50600260003373ffffffffffffffffffffffffffffffffffffffff1673ffffffffffffffffffffffffffffffffffffffff16815260200190815260200160002060008083815260200190815260200160002060030154908060018154018082558091505060019003906000526020600020016000909190919091505560036000806000848152602001908152602001600020600301548152602001908152602001600020339080600181540180825580915050600190039060005260206000200160009091909190916101000a81548173ffffffffffffffffffffffffffffffffffffffff021916908373ffffffffffffffffffffffffffffffffffffffff160217905550600460003373ffffffffffffffffffffffffffffffffffffffff1673ffffffffffffffffffffffffffffffffffffffff1681526020019081526020016000206000808381526020019081526020016000206003015490806001815401808255809150506001900390600052602060002001600090919091909150556001600860003373ffffffffffffffffffffffffffffffffffffffff1673ffffffffffffffffffffffffffffffffffffffff168152602001908152602001600020600082825401925050819055503373ffffffffffffffffffffffffffffffffffffffff16817f65393c85be3d0ea31e5061cd2782c6414dd86aeac2f508d76fa1f74f23c2a790888786886000808981526020019081526020016000206004015460405180806020018060200180602001868152602001858152602001848103845289818151815260200191508051906020019080838360005b83811015612371578082015181840152602081019050612356565b50505050905090810190601f16801561239e5780820380516001836020036101000a031916815260200191505b50848103835288818151815260200191508051906020019080838360005b838110156123d75780820151818401526020810190506123bc565b50505050905090810190601f1680156124045780820380516001836020036101000a031916815260200191505b50848103825287818151815260200191508051906020019080838360005b8381101561243d578082015181840152602081019050612422565b50505050905090810190601f16801561246a5780820380516001836020036101000a031916815260200191505b509850505050505050505060405180910390a3505050505050565b60075481565b60606003600083815260200190815260200160002080548060200260200160405190810160405280929190818152602001828054801561252057602002820191906000526020600020905b8160009054906101000a900473ffffffffffffffffffffffffffffffffffffffff1673ffffffffffffffffffffffffffffffffffffffff16815260200190600101908083116124d6575b50505050509050919050565b60003373ffffffffffffffffffffffffffffffffffffffff1631905090565b60006001600460003373ffffffffffffffffffffffffffffffffffffffff1673ffffffffffffffffffffffffffffffffffffffff168152602001908152602001600020805490500390508082111561260b576040517f08c379a000000000000000000000000000000000000000000000000000000000815260040180806020018281038252601b8152602001807f74617267657420696e64657820646f6573206e6f74206578697374000000000081525060200191505060405180910390fd5b6000600460003373ffffffffffffffffffffffffffffffffffffffff1673ffffffffffffffffffffffffffffffffffffffff168152602001908152602001600020828154811061265757fe5b90600052602060002001549050600460003373ffffffffffffffffffffffffffffffffffffffff1673ffffffffffffffffffffffffffffffffffffffff16815260200190815260200160002083815481106126ae57fe5b9060005260206000200154600460003373ffffffffffffffffffffffffffffffffffffffff1673ffffffffffffffffffffffffffffffffffffffff168152602001908152602001600020838154811061270357fe5b906000526020600020018190555080600460003373ffffffffffffffffffffffffffffffffffffffff1673ffffffffffffffffffffffffffffffffffffffff168152602001908152602001600020848154811061275c57fe5b9060005260206000200181905550600460003373ffffffffffffffffffffffffffffffffffffffff1673ffffffffffffffffffffffffffffffffffffffff1681526020019081526020016000208054806127b257fe5b60019003818190600052602060002001600090559055505050565b828054600181600116156101000203166002900490600052602060002090601f016020900481019282612803576000855561284a565b82601f1061281c57805160ff191683800117855561284a565b8280016001018555821561284a579182015b8281111561284957825182559160200191906001019061282e565b5b509050612857919061285b565b5090565b5b8082111561287457600081600090555060010161285c565b509056fe4f6e6c792063616e20656e646f72736520646f776e6c6f6164656420746f7272656e742066696c65733b206f7220796f75206861766520616c726561647920656e646f72736564796f752063616e6e6f7420656e646f72736520796f7572206f776e20746f7272656e742066696c652e796f752063616e6e6f7420646f776e6c6f616420796f7572206f776e207265736f75726365732ea26469706673582212208dcd1681049af412f727f45db5d5343fbbe0938ee8062f0614d17b9d91391ccc64736f6c63430007060033",
  "immutableReferences": {},
  "source": "// SPDX-License-Identifier: MIT\r\npragma solidity ^0.7.6;\r\n//todo: search function, update download and upload function\r\n//optional: tag viewing, modifier,\r\ncontract MagnetLinkBillboard {\r\n    struct SeedInfo {\r\n        string seedName;\r\n        //string seedLink;\r\n        string keyWords;\r\n        uint256 chargeAmount;\r\n        uint256 seedId; //primary key\r\n        uint256 endorseAmount;\r\n        address payable seedOwner;\r\n        string seedDescription;\r\n    }\r\n    mapping(uint256 => SeedInfo) public magnetItemsPublicInfo;\r\n    mapping(uint256 => string) magnetItemsSeedLinks;\r\n    mapping(address => uint[]) public OwnerSeedsSummary; //record all uploaded seeds for each owner\r\n    mapping(uint => address[]) public SeedsOwnerSummary; //record all owners for each seeds\r\n    mapping(address => uint[]) public endorseableSeedsSummary;\r\n    string public billboardName;\r\n    string empty = '';\r\n    uint256 public seedAmount = 0;\r\n    mapping(address => uint) public uploadAndDownloadCounter;\r\n\r\n    event SeedUploaded (\r\n        uint256 indexed seedId,\r\n        address payable indexed seedOwner,\r\n        string seedName,\r\n        string keyWords,\r\n        string seedDescription,\r\n        uint256 chargeAmount,\r\n        uint256 endorseAmount\r\n    );\r\n\r\n    event SeedDownloaded (\r\n\r\n        uint256 indexed seedId,\r\n        address payable indexed seedOwner,\r\n        string seedName,\r\n        string keyWords,\r\n        string seedDescription,\r\n        uint256 chargeAmount,\r\n        uint256 endorseAmount\r\n    );\r\n\r\n    constructor() public {\r\n        billboardName = \"Magnet Link Billboard\";\r\n    }\r\n\r\n\r\n    function upload(string memory _seedName, string memory _seedLink, string memory _keyWords, uint256 _chargeAmount, string memory _seedDescription) public {\r\n\r\n        require(keccak256(bytes(_seedName)) != keccak256(bytes(empty)), 'invalid seedName');\r\n        require(keccak256(bytes(_seedLink)) != keccak256(bytes(empty)), 'invalid seedLink');\r\n        require(keccak256(bytes(_keyWords)) != keccak256(bytes(empty)), 'invalid keyWords');\r\n        require(keccak256(bytes(_seedDescription)) != keccak256(bytes(empty)), 'invalid seedDescription');\r\n        require(_chargeAmount >= 0);\r\n\r\n        seedAmount += 1;\r\n        uint256 seedId= seedAmount;\r\n        magnetItemsPublicInfo[seedId] = SeedInfo(_seedName, _keyWords, _chargeAmount, seedId, 0, msg.sender, _seedDescription); //\r\n        magnetItemsSeedLinks[seedId] = _seedLink;\r\n        OwnerSeedsSummary[msg.sender].push(magnetItemsPublicInfo[seedId].seedId); // * msg.sender push this seed into his seedArray\r\n        SeedsOwnerSummary[magnetItemsPublicInfo[seedId].seedId].push(msg.sender); // * this seed add msg.sender as one of  its owner\r\n        endorseableSeedsSummary[msg.sender].push(magnetItemsPublicInfo[seedId].seedId);\r\n        uploadAndDownloadCounter[msg.sender] += 1;\r\n        \r\n        emit SeedUploaded(seedId, msg.sender, _seedName, _keyWords, _seedDescription, _chargeAmount, magnetItemsPublicInfo[seedId].endorseAmount);\r\n\r\n    }\r\n    function getLink(uint256 _seedId) public view returns(string memory){\r\n        return magnetItemsSeedLinks[_seedId];\r\n    }\r\n\r\n    function download(uint256 _seedId) public payable returns(bool){\r\n        bool transcationSucceed = false;\r\n        SeedInfo memory _seed = magnetItemsPublicInfo[_seedId];\r\n        address payable _uploader = _seed.seedOwner;\r\n        require(_seed.seedId > 0 && _seed.seedId <= seedAmount, 'seed does not exist');\r\n        require(msg.value >= _seed.chargeAmount, 'insufficient ether');\r\n        require(msg.sender != _uploader, 'you cannot download your own resources.');\r\n        bool exist = false;\r\n        for (uint8 i=0; i<OwnerSeedsSummary[msg.sender].length; i++){\r\n            if (OwnerSeedsSummary[msg.sender][i]==_seedId){\r\n                exist = true;\r\n                msg.sender.transfer(msg.value); //refund\r\n                break;\r\n            }\r\n        }\r\n        require(!exist, \"you have already download\");\r\n        _uploader.transfer(_seed.chargeAmount*9/10); //give 0.9 to downloader; 0.1 remains in contract\r\n        msg.sender.transfer(msg.value - _seed.chargeAmount); //return extra money\r\n        OwnerSeedsSummary[msg.sender].push(magnetItemsPublicInfo[_seedId].seedId);\r\n        SeedsOwnerSummary[magnetItemsPublicInfo[_seedId].seedId].push(msg.sender);\r\n        endorseableSeedsSummary[msg.sender].push(magnetItemsPublicInfo[_seedId].seedId);\r\n        uploadAndDownloadCounter[msg.sender] += 1;\r\n        \r\n        emit SeedDownloaded(seedAmount, msg.sender, _seed.seedName, _seed.keyWords, _seed.seedDescription, _seed.chargeAmount, _seed.endorseAmount);\r\n        transcationSucceed = true;\r\n        return transcationSucceed;\r\n        // return magnetItemsSeedLinks[_seedId];\r\n    }\r\n\r\n\r\n    // function search(string memory _keyWords) public returns (uint[] memory) {\r\n\r\n    //     // require(keyMap[_keyWords].seedId > 0 && keyMap[_keyWords].seedId <= seedAmount, 'seed should be uploaded');\r\n        \r\n    //     for (uint256 i=0; i < seedAmount; i++ ) {\r\n            \r\n    //         SeedInfo memory _seed = magnetItems[i];\r\n            \r\n    //         if (keccak256(abi.encodePacked(_seed.keyWords)) == keccak256(abi.encodePacked(_keyWords))) {\r\n                \r\n    //             SearchResult[keyMap[_keyWords].keyWords].push(keyMap[_keyWords].seedId);\r\n    //             break;\r\n    //         }\r\n    //     }\r\n    //     return (SearchResult[_keyWords]);   \r\n    // }\r\n\r\n\r\n    function endorse(uint256 _seedId) public {\r\n\r\n        require(_seedId > 0 && _seedId <= seedAmount, 'seed does not exist');\r\n        bool found = false; \r\n\r\n        // * this for loop is to limit user only who have downloaded this seed can endorse it\r\n        \r\n        for (uint256 i = 0; i < endorseableSeedsSummary[msg.sender].length; i++) {\r\n\r\n            if (endorseableSeedsSummary[msg.sender][i] == _seedId) {\r\n                require((msg.sender) != (magnetItemsPublicInfo[_seedId].seedOwner), \"you cannot endorse your own torrent file.\" );\r\n                removeEndorsedSeeds(i);\r\n                magnetItemsPublicInfo[_seedId].seedOwner.transfer(contractBalance()/100000000000);\r\n                magnetItemsPublicInfo[_seedId].endorseAmount ++;\r\n                found = true;\r\n                \r\n                break;\r\n            }\r\n        }\r\n        require(found, \"Only can endorse downloaded torrent files; or you have already endorsed\");\r\n    }\r\n    \r\n    \r\n    function removeEndorsedSeeds(uint256 index) internal {\r\n        uint lastIndex = endorseableSeedsSummary[msg.sender].length-1;\r\n        require (index <= lastIndex, \"target index does not exist\");\r\n        //swap target and the last one\r\n        uint temp = endorseableSeedsSummary[msg.sender][lastIndex];\r\n        endorseableSeedsSummary[msg.sender][lastIndex] = endorseableSeedsSummary[msg.sender][index];\r\n        endorseableSeedsSummary[msg.sender][index] = temp;\r\n        endorseableSeedsSummary[msg.sender].pop();\r\n    }\r\n\r\n\r\n\r\n    function contractBalance() public view returns (uint256 contractEth){\r\n\r\n        return (address(this).balance);\r\n    }\r\n    \r\n    function checkSeedOwner(uint256 _seedId) public view returns (address[] memory) {\r\n        \r\n        return (SeedsOwnerSummary[_seedId]);\r\n    }\r\n    \r\n    function checkUserSeeds() public view returns (uint[] memory) {\r\n        \r\n        return (OwnerSeedsSummary[msg.sender]);\r\n    }\r\n    \r\n    function checkSeedOwnerBalance() public view returns(uint256 SeedOwnerBalance) {\r\n        \r\n        return (msg.sender.balance);\r\n    }\r\n    \r\n    \r\n    \r\n}\r\n",
  "sourcePath": "E:/UBC/EECE571G/Magnet_Link_Billboard/src/contracts/MagnetLinkBillboard.sol",
  "compiler": {
    "name": "solc",
    "version": "0.7.6+commit.7338295f.Emscripten.clang"
  },
  "schemaVersion": "3.3.4",
  "updatedAt": "2021-04-09T06:33:19.867Z",
  "networkType": "ethereum",
  "devdoc": {
    "kind": "dev",
    "methods": {},
    "version": 1
  },
  "userdoc": {
    "kind": "user",
    "methods": {},
    "version": 1
  }
}