{
  "contractName": "MagnetLinkBillboard",
  "abi": [
    {
      "inputs": [],
      "stateMutability": "nonpayable",
      "type": "constructor"
    },
    {
      "anonymous": false,
      "inputs": [
        {
          "indexed": true,
          "internalType": "uint256",
          "name": "seedId",
          "type": "uint256"
        },
        {
          "indexed": true,
          "internalType": "address payable",
          "name": "seedOwner",
          "type": "address"
        },
        {
          "indexed": false,
          "internalType": "string",
          "name": "seedName",
          "type": "string"
        },
        {
          "indexed": false,
          "internalType": "string",
          "name": "keyWords",
          "type": "string"
        },
        {
          "indexed": false,
          "internalType": "string",
          "name": "seedDescription",
          "type": "string"
        },
        {
          "indexed": false,
          "internalType": "uint256",
          "name": "chargeAmount",
          "type": "uint256"
        },
        {
          "indexed": false,
          "internalType": "uint256",
          "name": "endorseAmount",
          "type": "uint256"
        }
      ],
      "name": "SeedDownloaded",
      "type": "event"
    },
    {
      "anonymous": false,
      "inputs": [
        {
          "indexed": true,
          "internalType": "uint256",
          "name": "seedId",
          "type": "uint256"
        },
        {
          "indexed": true,
          "internalType": "address payable",
          "name": "seedOwner",
          "type": "address"
        },
        {
          "indexed": false,
          "internalType": "string",
          "name": "seedName",
          "type": "string"
        },
        {
          "indexed": false,
          "internalType": "string",
          "name": "keyWords",
          "type": "string"
        },
        {
          "indexed": false,
          "internalType": "string",
          "name": "seedDescription",
          "type": "string"
        },
        {
          "indexed": false,
          "internalType": "uint256",
          "name": "chargeAmount",
          "type": "uint256"
        },
        {
          "indexed": false,
          "internalType": "uint256",
          "name": "endorseAmount",
          "type": "uint256"
        }
      ],
      "name": "SeedUploaded",
      "type": "event"
    },
    {
      "inputs": [
        {
          "internalType": "address",
          "name": "",
          "type": "address"
        },
        {
          "internalType": "uint256",
          "name": "",
          "type": "uint256"
        }
      ],
      "name": "OwnerSeedsSummary",
      "outputs": [
        {
          "internalType": "uint256",
          "name": "",
          "type": "uint256"
        }
      ],
      "stateMutability": "view",
      "type": "function",
      "constant": true
    },
    {
      "inputs": [
        {
          "internalType": "uint256",
          "name": "",
          "type": "uint256"
        },
        {
          "internalType": "uint256",
          "name": "",
          "type": "uint256"
        }
      ],
      "name": "SeedsOwnerSummary",
      "outputs": [
        {
          "internalType": "address",
          "name": "",
          "type": "address"
        }
      ],
      "stateMutability": "view",
      "type": "function",
      "constant": true
    },
    {
      "inputs": [],
      "name": "billboardName",
      "outputs": [
        {
          "internalType": "string",
          "name": "",
          "type": "string"
        }
      ],
      "stateMutability": "view",
      "type": "function",
      "constant": true
    },
    {
      "inputs": [
        {
          "internalType": "address",
          "name": "",
          "type": "address"
        },
        {
          "internalType": "uint256",
          "name": "",
          "type": "uint256"
        }
      ],
      "name": "endorseableSeedsSummary",
      "outputs": [
        {
          "internalType": "uint256",
          "name": "",
          "type": "uint256"
        }
      ],
      "stateMutability": "view",
      "type": "function",
      "constant": true
    },
    {
      "inputs": [
        {
          "internalType": "uint256",
          "name": "",
          "type": "uint256"
        }
      ],
      "name": "magnetItemsPublicInfo",
      "outputs": [
        {
          "internalType": "string",
          "name": "seedName",
          "type": "string"
        },
        {
          "internalType": "string",
          "name": "keyWords",
          "type": "string"
        },
        {
          "internalType": "uint256",
          "name": "chargeAmount",
          "type": "uint256"
        },
        {
          "internalType": "uint256",
          "name": "seedId",
          "type": "uint256"
        },
        {
          "internalType": "uint256",
          "name": "endorseAmount",
          "type": "uint256"
        },
        {
          "internalType": "address payable",
          "name": "seedOwner",
          "type": "address"
        },
        {
          "internalType": "string",
          "name": "seedDescription",
          "type": "string"
        }
      ],
      "stateMutability": "view",
      "type": "function",
      "constant": true
    },
    {
      "inputs": [],
      "name": "seedAmount",
      "outputs": [
        {
          "internalType": "uint256",
          "name": "",
          "type": "uint256"
        }
      ],
      "stateMutability": "view",
      "type": "function",
      "constant": true
    },
    {
      "inputs": [
        {
          "internalType": "string",
          "name": "_seedName",
          "type": "string"
        },
        {
          "internalType": "string",
          "name": "_seedLink",
          "type": "string"
        },
        {
          "internalType": "string",
          "name": "_keyWords",
          "type": "string"
        },
        {
          "internalType": "uint256",
          "name": "_chargeAmount",
          "type": "uint256"
        },
        {
          "internalType": "string",
          "name": "_seedDescription",
          "type": "string"
        }
      ],
      "name": "upload",
      "outputs": [],
      "stateMutability": "nonpayable",
      "type": "function"
    },
    {
      "inputs": [
        {
          "internalType": "uint256",
          "name": "_seedId",
          "type": "uint256"
        }
      ],
      "name": "download",
      "outputs": [
        {
          "internalType": "string",
          "name": "",
          "type": "string"
        }
      ],
      "stateMutability": "payable",
      "type": "function",
      "payable": true
    },
    {
      "inputs": [
        {
          "internalType": "uint256",
          "name": "_seedId",
          "type": "uint256"
        }
      ],
      "name": "endorse",
      "outputs": [],
      "stateMutability": "nonpayable",
      "type": "function"
    },
    {
      "inputs": [],
      "name": "contractBalance",
      "outputs": [
        {
          "internalType": "uint256",
          "name": "contractEth",
          "type": "uint256"
        }
      ],
      "stateMutability": "view",
      "type": "function",
      "constant": true
    },
    {
      "inputs": [
        {
          "internalType": "uint256",
          "name": "_seedId",
          "type": "uint256"
        }
      ],
      "name": "checkSeedOwner",
      "outputs": [
        {
          "internalType": "address[]",
          "name": "",
          "type": "address[]"
        }
      ],
      "stateMutability": "view",
      "type": "function",
      "constant": true
    },
    {
      "inputs": [],
      "name": "checkUserSeeds",
      "outputs": [
        {
          "internalType": "uint256[]",
          "name": "",
          "type": "uint256[]"
        }
      ],
      "stateMutability": "view",
      "type": "function",
      "constant": true
    },
    {
      "inputs": [],
      "name": "checkSeedOwnerBalance",
      "outputs": [
        {
          "internalType": "uint256",
          "name": "SeedOwnerBalance",
          "type": "uint256"
        }
      ],
      "stateMutability": "view",
      "type": "function",
      "constant": true
    }
  ],
  "bytecode": "0x608060405260405180602001604052806000815250600690805190602001906200002b92919062000093565b5060006007553480156200003e57600080fd5b506040518060400160405280601581526020017f4d61676e6574204c696e6b2042696c6c626f6172640000000000000000000000815250600590805190602001906200008c92919062000093565b5062000149565b828054600181600116156101000203166002900490600052602060002090601f016020900481019282620000cb576000855562000117565b82601f10620000e657805160ff191683800117855562000117565b8280016001018555821562000117579182015b8281111562000116578251825591602001919060010190620000f9565b5b5090506200012691906200012a565b5090565b5b80821115620001455760008160009055506001016200012b565b5090565b6127b080620001596000396000f3fe6080604052600436106100c25760003560e01c80638b7afe2e1161007f578063be6851a511610059578063be6851a5146105db578063c5774a3f14610872578063cd5eb1331461089d578063fefe995f1461092d576100c2565b80638b7afe2e146104b4578063aec2e53b146104df578063b0ee9fc31461054b576100c2565b80631f817ede146100c75780631fcfe3eb146102855780634cc434d5146102c05780635836a8511461032f57806374cf6d6c1461039e57806387b9c24d1461040d575b600080fd5b3480156100d357600080fd5b50610100600480360360208110156100ea57600080fd5b8101908080359060200190929190505050610958565b6040518080602001806020018881526020018781526020018681526020018573ffffffffffffffffffffffffffffffffffffffff1681526020018060200184810384528b818151815260200191508051906020019080838360005b8381101561017657808201518184015260208101905061015b565b50505050905090810190601f1680156101a35780820380516001836020036101000a031916815260200191505b5084810383528a818151815260200191508051906020019080838360005b838110156101dc5780820151818401526020810190506101c1565b50505050905090810190601f1680156102095780820380516001836020036101000a031916815260200191505b50848103825285818151815260200191508051906020019080838360005b83811015610242578082015181840152602081019050610227565b50505050905090810190601f16801561026f5780820380516001836020036101000a031916815260200191505b509a505050505050505050505060405180910390f35b34801561029157600080fd5b506102be600480360360208110156102a857600080fd5b8101908080359060200190929190505050610b82565b005b3480156102cc57600080fd5b50610303600480360360408110156102e357600080fd5b810190808035906020019092919080359060200190929190505050610e9a565b604051808273ffffffffffffffffffffffffffffffffffffffff16815260200191505060405180910390f35b34801561033b57600080fd5b506103886004803603604081101561035257600080fd5b81019080803573ffffffffffffffffffffffffffffffffffffffff16906020019092919080359060200190929190505050610ee8565b6040518082815260200191505060405180910390f35b3480156103aa57600080fd5b506103f7600480360360408110156103c157600080fd5b81019080803573ffffffffffffffffffffffffffffffffffffffff16906020019092919080359060200190929190505050610f19565b6040518082815260200191505060405180910390f35b6104396004803603602081101561042357600080fd5b8101908080359060200190929190505050610f4a565b6040518080602001828103825283818151815260200191508051906020019080838360005b8381101561047957808201518184015260208101905061045e565b50505050905090810190601f1680156104a65780820380516001836020036101000a031916815260200191505b509250505060405180910390f35b3480156104c057600080fd5b506104c961194e565b6040518082815260200191505060405180910390f35b3480156104eb57600080fd5b506104f4611956565b6040518080602001828103825283818151815260200191508051906020019060200280838360005b8381101561053757808201518184015260208101905061051c565b505050509050019250505060405180910390f35b34801561055757600080fd5b506105606119eb565b6040518080602001828103825283818151815260200191508051906020019080838360005b838110156105a0578082015181840152602081019050610585565b50505050905090810190601f1680156105cd5780820380516001836020036101000a031916815260200191505b509250505060405180910390f35b3480156105e757600080fd5b50610870600480360360a08110156105fe57600080fd5b810190808035906020019064010000000081111561061b57600080fd5b82018360208201111561062d57600080fd5b8035906020019184600183028401116401000000008311171561064f57600080fd5b91908080601f016020809104026020016040519081016040528093929190818152602001838380828437600081840152601f19601f820116905080830192505050505050509192919290803590602001906401000000008111156106b257600080fd5b8201836020820111156106c457600080fd5b803590602001918460018302840111640100000000831117156106e657600080fd5b91908080601f016020809104026020016040519081016040528093929190818152602001838380828437600081840152601f19601f8201169050808301925050505050505091929192908035906020019064010000000081111561074957600080fd5b82018360208201111561075b57600080fd5b8035906020019184600183028401116401000000008311171561077d57600080fd5b91908080601f016020809104026020016040519081016040528093929190818152602001838380828437600081840152601f19601f82011690508083019250505050505050919291929080359060200190929190803590602001906401000000008111156107ea57600080fd5b8201836020820111156107fc57600080fd5b8035906020019184600183028401116401000000008311171561081e57600080fd5b91908080601f016020809104026020016040519081016040528093929190818152602001838380828437600081840152601f19601f820116905080830192505050505050509192919290505050611a89565b005b34801561087e57600080fd5b506108876122c4565b6040518082815260200191505060405180910390f35b3480156108a957600080fd5b506108d6600480360360208110156108c057600080fd5b81019080803590602001909291905050506122ca565b6040518080602001828103825283818151815260200191508051906020019060200280838360005b838110156109195780820151818401526020810190506108fe565b505050509050019250505060405180910390f35b34801561093957600080fd5b5061094261236b565b6040518082815260200191505060405180910390f35b6000602052806000526040600020600091509050806000018054600181600116156101000203166002900480601f016020809104026020016040519081016040528092919081815260200182805460018160011615610100020316600290048015610a045780601f106109d957610100808354040283529160200191610a04565b820191906000526020600020905b8154815290600101906020018083116109e757829003601f168201915b505050505090806001018054600181600116156101000203166002900480601f016020809104026020016040519081016040528092919081815260200182805460018160011615610100020316600290048015610aa25780601f10610a7757610100808354040283529160200191610aa2565b820191906000526020600020905b815481529060010190602001808311610a8557829003601f168201915b5050505050908060020154908060030154908060040154908060050160009054906101000a900473ffffffffffffffffffffffffffffffffffffffff1690806006018054600181600116156101000203166002900480601f016020809104026020016040519081016040528092919081815260200182805460018160011615610100020316600290048015610b785780601f10610b4d57610100808354040283529160200191610b78565b820191906000526020600020905b815481529060010190602001808311610b5b57829003601f168201915b5050505050905087565b600081118015610b9457506007548111155b610c06576040517f08c379a00000000000000000000000000000000000000000000000000000000081526004018080602001828103825260178152602001807f546865207365656420646f6573206e6f7420657869737400000000000000000081525060200191505060405180910390fd5b6000805b600460003373ffffffffffffffffffffffffffffffffffffffff1673ffffffffffffffffffffffffffffffffffffffff16815260200190815260200160002080549050811015610e3f5782600460003373ffffffffffffffffffffffffffffffffffffffff1673ffffffffffffffffffffffffffffffffffffffff1681526020019081526020016000208281548110610c9f57fe5b90600052602060002001541415610e325760008084815260200190815260200160002060050160009054906101000a900473ffffffffffffffffffffffffffffffffffffffff1673ffffffffffffffffffffffffffffffffffffffff163373ffffffffffffffffffffffffffffffffffffffff161415610d6a576040517f08c379a00000000000000000000000000000000000000000000000000000000081526004018080602001828103825260298152602001806126da6029913960400191505060405180910390fd5b610d738161238a565b60008084815260200190815260200160002060050160009054906101000a900473ffffffffffffffffffffffffffffffffffffffff1673ffffffffffffffffffffffffffffffffffffffff166108fc64174876e800610dd061194e565b81610dd757fe5b049081150290604051600060405180830381858888f19350505050158015610e03573d6000803e3d6000fd5b506000808481526020019081526020016000206004016000815480929190600101919050555060019150610e3f565b8080600101915050610c0a565b5080610e96576040517f08c379a000000000000000000000000000000000000000000000000000000000815260040180806020018281038252605181526020018061272a6051913960600191505060405180910390fd5b5050565b60036020528160005260406000208181548110610eb657600080fd5b906000526020600020016000915091509054906101000a900473ffffffffffffffffffffffffffffffffffffffff1681565b60026020528160005260406000208181548110610f0457600080fd5b90600052602060002001600091509150505481565b60046020528160005260406000208181548110610f3557600080fd5b90600052602060002001600091509150505481565b606060008060008481526020019081526020016000206040518060e0016040529081600082018054600181600116156101000203166002900480601f0160208091040260200160405190810160405280929190818152602001828054600181600116156101000203166002900480156110045780601f10610fd957610100808354040283529160200191611004565b820191906000526020600020905b815481529060010190602001808311610fe757829003601f168201915b50505050508152602001600182018054600181600116156101000203166002900480601f0160208091040260200160405190810160405280929190818152602001828054600181600116156101000203166002900480156110a65780601f1061107b576101008083540402835291602001916110a6565b820191906000526020600020905b81548152906001019060200180831161108957829003601f168201915b505050505081526020016002820154815260200160038201548152602001600482015481526020016005820160009054906101000a900473ffffffffffffffffffffffffffffffffffffffff1673ffffffffffffffffffffffffffffffffffffffff1673ffffffffffffffffffffffffffffffffffffffff168152602001600682018054600181600116156101000203166002900480601f0160208091040260200160405190810160405280929190818152602001828054600181600116156101000203166002900480156111bc5780601f10611191576101008083540402835291602001916111bc565b820191906000526020600020905b81548152906001019060200180831161119f57829003601f168201915b505050505081525050905060008160a001519050600082606001511180156111ea5750600754826060015111155b61125c576040517f08c379a00000000000000000000000000000000000000000000000000000000081526004018080602001828103825260178152602001807f546865207365656420646f6573206e6f7420657869737400000000000000000081525060200191505060405180910390fd5b81604001513410156112d6576040517f08c379a000000000000000000000000000000000000000000000000000000000815260040180806020018281038252601b8152602001807f596f75206861766520696e73756666696369656e74206574686572000000000081525060200191505060405180910390fd5b8073ffffffffffffffffffffffffffffffffffffffff163373ffffffffffffffffffffffffffffffffffffffff16141561135b576040517f08c379a00000000000000000000000000000000000000000000000000000000081526004018080602001828103825260278152602001806127036027913960400191505060405180910390fd5b6000805b600260003373ffffffffffffffffffffffffffffffffffffffff1673ffffffffffffffffffffffffffffffffffffffff168152602001908152602001600020805490508160ff1610156114685785600260003373ffffffffffffffffffffffffffffffffffffffff1673ffffffffffffffffffffffffffffffffffffffff1681526020019081526020016000208260ff16815481106113fa57fe5b9060005260206000200154141561145b57600191503373ffffffffffffffffffffffffffffffffffffffff166108fc349081150290604051600060405180830381858888f19350505050158015611455573d6000803e3d6000fd5b50611468565b808060010191505061135f565b5080156114c0576040517f08c379a00000000000000000000000000000000000000000000000000000000081526004018080602001828103825260228152602001806126b86022913960400191505060405180910390fd5b8173ffffffffffffffffffffffffffffffffffffffff166108fc600a6009866040015102816114eb57fe5b049081150290604051600060405180830381858888f19350505050158015611517573d6000803e3d6000fd5b503373ffffffffffffffffffffffffffffffffffffffff166108fc846040015134039081150290604051600060405180830381858888f19350505050158015611564573d6000803e3d6000fd5b50600260003373ffffffffffffffffffffffffffffffffffffffff1673ffffffffffffffffffffffffffffffffffffffff16815260200190815260200160002060008087815260200190815260200160002060030154908060018154018082558091505060019003906000526020600020016000909190919091505560036000806000888152602001908152602001600020600301548152602001908152602001600020339080600181540180825580915050600190039060005260206000200160009091909190916101000a81548173ffffffffffffffffffffffffffffffffffffffff021916908373ffffffffffffffffffffffffffffffffffffffff160217905550600460003373ffffffffffffffffffffffffffffffffffffffff1673ffffffffffffffffffffffffffffffffffffffff1681526020019081526020016000206000808781526020019081526020016000206003015490806001815401808255809150506001900390600052602060002001600090919091909150553373ffffffffffffffffffffffffffffffffffffffff166007547f3480b392c1ebbe9a8d9a74ec29dcbb15d1cb98e7581ca07706638f645f65ec17856000015186602001518760c001518860400151896080015160405180806020018060200180602001868152602001858152602001848103845289818151815260200191508051906020019080838360005b8381101561178c578082015181840152602081019050611771565b50505050905090810190601f1680156117b95780820380516001836020036101000a031916815260200191505b50848103835288818151815260200191508051906020019080838360005b838110156117f25780820151818401526020810190506117d7565b50505050905090810190601f16801561181f5780820380516001836020036101000a031916815260200191505b50848103825287818151815260200191508051906020019080838360005b8381101561185857808201518184015260208101905061183d565b50505050905090810190601f1680156118855780820380516001836020036101000a031916815260200191505b509850505050505050505060405180910390a3600160008681526020019081526020016000208054600181600116156101000203166002900480601f01602080910402602001604051908101604052809291908181526020018280546001816001161561010002031660029004801561193f5780601f106119145761010080835404028352916020019161193f565b820191906000526020600020905b81548152906001019060200180831161192257829003601f168201915b50505050509350505050919050565b600047905090565b6060600260003373ffffffffffffffffffffffffffffffffffffffff1673ffffffffffffffffffffffffffffffffffffffff1681526020019081526020016000208054806020026020016040519081016040528092919081815260200182805480156119e157602002820191906000526020600020905b8154815260200190600101908083116119cd575b5050505050905090565b60058054600181600116156101000203166002900480601f016020809104026020016040519081016040528092919081815260200182805460018160011615610100020316600290048015611a815780601f10611a5657610100808354040283529160200191611a81565b820191906000526020600020905b815481529060010190602001808311611a6457829003601f168201915b505050505081565b60066040518082805460018160011615610100020316600290048015611ae65780601f10611ac4576101008083540402835291820191611ae6565b820191906000526020600020905b815481529060010190602001808311611ad2575b5050915050604051809103902085805190602001201415611b6f576040517f08c379a00000000000000000000000000000000000000000000000000000000081526004018080602001828103825260108152602001807f696e76616c696420736565644e616d650000000000000000000000000000000081525060200191505060405180910390fd5b60066040518082805460018160011615610100020316600290048015611bcc5780601f10611baa576101008083540402835291820191611bcc565b820191906000526020600020905b815481529060010190602001808311611bb8575b5050915050604051809103902084805190602001201415611c55576040517f08c379a00000000000000000000000000000000000000000000000000000000081526004018080602001828103825260108152602001807f696e76616c696420736565644c696e6b0000000000000000000000000000000081525060200191505060405180910390fd5b60066040518082805460018160011615610100020316600290048015611cb25780601f10611c90576101008083540402835291820191611cb2565b820191906000526020600020905b815481529060010190602001808311611c9e575b5050915050604051809103902083805190602001201415611d3b576040517f08c379a00000000000000000000000000000000000000000000000000000000081526004018080602001828103825260108152602001807f696e76616c6964206b6579576f7264730000000000000000000000000000000081525060200191505060405180910390fd5b60066040518082805460018160011615610100020316600290048015611d985780601f10611d76576101008083540402835291820191611d98565b820191906000526020600020905b815481529060010190602001808311611d84575b5050915050604051809103902081805190602001201415611e21576040517f08c379a00000000000000000000000000000000000000000000000000000000081526004018080602001828103825260178152602001807f696e76616c696420736565644465736372697074696f6e00000000000000000081525060200191505060405180910390fd5b6000821015611e2f57600080fd5b6001600760008282540192505081905550600060075490506040518060e00160405280878152602001858152602001848152602001828152602001600081526020013373ffffffffffffffffffffffffffffffffffffffff168152602001838152506000808381526020019081526020016000206000820151816000019080519060200190611ebf92919061260c565b506020820151816001019080519060200190611edc92919061260c565b5060408201518160020155606082015181600301556080820151816004015560a08201518160050160006101000a81548173ffffffffffffffffffffffffffffffffffffffff021916908373ffffffffffffffffffffffffffffffffffffffff16021790555060c0820151816006019080519060200190611f5e92919061260c565b5090505084600160008381526020019081526020016000209080519060200190611f8992919061260c565b50600260003373ffffffffffffffffffffffffffffffffffffffff1673ffffffffffffffffffffffffffffffffffffffff16815260200190815260200160002060008083815260200190815260200160002060030154908060018154018082558091505060019003906000526020600020016000909190919091505560036000806000848152602001908152602001600020600301548152602001908152602001600020339080600181540180825580915050600190039060005260206000200160009091909190916101000a81548173ffffffffffffffffffffffffffffffffffffffff021916908373ffffffffffffffffffffffffffffffffffffffff160217905550600460003373ffffffffffffffffffffffffffffffffffffffff1673ffffffffffffffffffffffffffffffffffffffff1681526020019081526020016000206000808381526020019081526020016000206003015490806001815401808255809150506001900390600052602060002001600090919091909150553373ffffffffffffffffffffffffffffffffffffffff16817f65393c85be3d0ea31e5061cd2782c6414dd86aeac2f508d76fa1f74f23c2a790888786886000808981526020019081526020016000206004015460405180806020018060200180602001868152602001858152602001848103845289818151815260200191508051906020019080838360005b838110156121b0578082015181840152602081019050612195565b50505050905090810190601f1680156121dd5780820380516001836020036101000a031916815260200191505b50848103835288818151815260200191508051906020019080838360005b838110156122165780820151818401526020810190506121fb565b50505050905090810190601f1680156122435780820380516001836020036101000a031916815260200191505b50848103825287818151815260200191508051906020019080838360005b8381101561227c578082015181840152602081019050612261565b50505050905090810190601f1680156122a95780820380516001836020036101000a031916815260200191505b509850505050505050505060405180910390a3505050505050565b60075481565b60606003600083815260200190815260200160002080548060200260200160405190810160405280929190818152602001828054801561235f57602002820191906000526020600020905b8160009054906101000a900473ffffffffffffffffffffffffffffffffffffffff1673ffffffffffffffffffffffffffffffffffffffff1681526020019060010190808311612315575b50505050509050919050565b60003373ffffffffffffffffffffffffffffffffffffffff1631905090565b60006001600460003373ffffffffffffffffffffffffffffffffffffffff1673ffffffffffffffffffffffffffffffffffffffff168152602001908152602001600020805490500390508082111561244a576040517f08c379a000000000000000000000000000000000000000000000000000000000815260040180806020018281038252601b8152602001807f54617267657420696e64657820646f6573206e6f74206578697374000000000081525060200191505060405180910390fd5b6000600460003373ffffffffffffffffffffffffffffffffffffffff1673ffffffffffffffffffffffffffffffffffffffff168152602001908152602001600020828154811061249657fe5b90600052602060002001549050600460003373ffffffffffffffffffffffffffffffffffffffff1673ffffffffffffffffffffffffffffffffffffffff16815260200190815260200160002083815481106124ed57fe5b9060005260206000200154600460003373ffffffffffffffffffffffffffffffffffffffff1673ffffffffffffffffffffffffffffffffffffffff168152602001908152602001600020838154811061254257fe5b906000526020600020018190555080600460003373ffffffffffffffffffffffffffffffffffffffff1673ffffffffffffffffffffffffffffffffffffffff168152602001908152602001600020848154811061259b57fe5b9060005260206000200181905550600460003373ffffffffffffffffffffffffffffffffffffffff1673ffffffffffffffffffffffffffffffffffffffff1681526020019081526020016000208054806125f157fe5b60019003818190600052602060002001600090559055505050565b828054600181600116156101000203166002900490600052602060002090601f0160209004810192826126425760008555612689565b82601f1061265b57805160ff1916838001178555612689565b82800160010185558215612689579182015b8281111561268857825182559160200191906001019061266d565b5b509050612696919061269a565b5090565b5b808211156126b357600081600090555060010161269b565b509056fe596f75206861766520616c726561647920646f776e6c6f6164207468652073656564596f752063616e6e6f7420656e646f72736520796f7572206f776e20746f7272656e742066696c652e596f752063616e6e6f7420646f776e6c6f616420796f7572206f776e207265736f75726365732e4f6e6c792074686520646f776e6c6f616465642073656564732063616e20626520656e646f727365642c206f7220796f75206861766520616c726561647920656e646f7273656420746861742073656564a2646970667358221220996353810286696874305839f78694820f9a3ee903681a608ca2acf6eb22085b64736f6c63430007060033",
  "immutableReferences": {},
  "source": "// SPDX-License-Identifier: MIT\r\npragma solidity ^0.7.6;\r\n//todo: search function, update download and upload function\r\n//optional: tag viewing, modifier,\r\ncontract MagnetLinkBillboard {\r\n    struct SeedInfo {\r\n        string seedName;\r\n        //string seedLink;\r\n        string keyWords;\r\n        uint256 chargeAmount;\r\n        uint256 seedId; // The primary key\r\n        uint256 endorseAmount;\r\n        address payable seedOwner;\r\n        string seedDescription;\r\n    }\r\n\r\n    mapping(uint256 => SeedInfo) public magnetItemsPublicInfo;\r\n    mapping(uint256 => string) magnetItemsSeedLinks;            // Archive the seed link for each seed\r\n    mapping(address => uint[]) public OwnerSeedsSummary;        // Archive all the IDs of uploaded seeds for each writer\r\n    mapping(uint => address[]) public SeedsOwnerSummary;        // Archive the writer for each seed\r\n    mapping(address => uint[]) public endorseableSeedsSummary;  // Archive all the seeds that a user can endorse\r\n    \r\n    string public billboardName;\r\n    string empty = '';\r\n    uint256 public seedAmount = 0; // The number of seeds/files on the magnet link billboard\r\n\r\n    // A SeedUploaded event is emitted after uploading a seed to the billboard\r\n    event SeedUploaded (\r\n        uint256 indexed seedId,\r\n        address payable indexed seedOwner,\r\n        string seedName,\r\n        string keyWords,\r\n        string seedDescription,\r\n        uint256 chargeAmount,\r\n        uint256 endorseAmount\r\n    );\r\n\r\n    // A SeedDownloaded event is emitted after downloading a seed from the billboard\r\n    event SeedDownloaded (\r\n        uint256 indexed seedId,\r\n        address payable indexed seedOwner,\r\n        string seedName,\r\n        string keyWords,\r\n        string seedDescription,\r\n        uint256 chargeAmount,\r\n        uint256 endorseAmount\r\n    );\r\n\r\n    constructor() public {\r\n        billboardName = \"Magnet Link Billboard\";\r\n    }\r\n\r\n    /** A writer can contribute to the billboard by uploading a valid file/seed **/\r\n    /** Input:                                                                  **/\r\n    /** _seedName: The name of the uploaded file/seed, should not be empty      **/\r\n    /** _seedLink: The link of the uploaded file/seed, should not be empty      **/\r\n    /** _keyWords: The key words of the uploaded file/seed, should not be empty **/\r\n    /** _chargeAmount: The charge that a visitor needs to pay if he/she wants   **/\r\n    /**                to download the file/seed, should not be smaller than 0  **/\r\n    /** _seedDescription: A simple description of the content in the file/seed, **/\r\n    /**                   should not be empty                                   **/\r\n    /** Output:                                                                 **/\r\n    /** A SeedUploaded event                                                    **/\r\n    function upload(string memory _seedName, string memory _seedLink, string memory _keyWords, uint256 _chargeAmount, string memory _seedDescription) public {\r\n\r\n        require(keccak256(bytes(_seedName)) != keccak256(bytes(empty)), 'invalid seedName');\r\n        require(keccak256(bytes(_seedLink)) != keccak256(bytes(empty)), 'invalid seedLink');\r\n        require(keccak256(bytes(_keyWords)) != keccak256(bytes(empty)), 'invalid keyWords');\r\n        require(keccak256(bytes(_seedDescription)) != keccak256(bytes(empty)), 'invalid seedDescription');\r\n        require(_chargeAmount >= 0);\r\n\r\n        seedAmount += 1;            // Increase the amount of seeds on the billboard\r\n        uint256 seedId= seedAmount; // Assign the seed ID\r\n\r\n        // Archive the basic information of the uploaded seed, and record the seed link separately\r\n        magnetItemsPublicInfo[seedId] = SeedInfo(_seedName, _keyWords, _chargeAmount, seedId, 0, msg.sender, _seedDescription);\r\n        magnetItemsSeedLinks[seedId] = _seedLink;\r\n\r\n        // Doubly link the writer and the seed ID, indicating the writer owns this seed, and the seed belongs to the writer\r\n        OwnerSeedsSummary[msg.sender].push(magnetItemsPublicInfo[seedId].seedId);\r\n        SeedsOwnerSummary[magnetItemsPublicInfo[seedId].seedId].push(msg.sender);\r\n\r\n        // An uploaded seed can be endorsed by the visitors later on\r\n        endorseableSeedsSummary[msg.sender].push(magnetItemsPublicInfo[seedId].seedId);\r\n\r\n        emit SeedUploaded(seedId, msg.sender, _seedName, _keyWords, _seedDescription, _chargeAmount, magnetItemsPublicInfo[seedId].endorseAmount);\r\n\r\n    }\r\n\r\n    /** A visitor can download a file/seed from the billboard             **/\r\n    /** Input:                                                            **/\r\n    /** _seedID: The index that points to the downloaded seed, should not **/ \r\n    /**          smaller than 0 or exceed the existing amount of seed     **/\r\n    /** Output:                                                           **/\r\n    /** magnetItemsSeedLinks[_seedId]: The link to the downloaded seed    **/\r\n    /** A SeedDownloaded event                                            **/\r\n    function download(uint256 _seedId) public payable returns(string memory){\r\n\r\n        SeedInfo memory _seed = magnetItemsPublicInfo[_seedId];\r\n        address payable _uploader = _seed.seedOwner;\r\n        require(_seed.seedId > 0 && _seed.seedId <= seedAmount, 'The seed does not exist');\r\n\r\n        // The vistor should have enough ether if he/she wants to download the file\r\n        require(msg.value >= _seed.chargeAmount, 'You have insufficient ether');\r\n\r\n        // The writer cannot download the files he/she uploads to the billboard\r\n        require(msg.sender != _uploader, 'You cannot download your own resources.');\r\n        bool exist = false;\r\n        for (uint8 i=0; i<OwnerSeedsSummary[msg.sender].length; i++){\r\n            if (OwnerSeedsSummary[msg.sender][i]==_seedId){\r\n                exist = true;\r\n                msg.sender.transfer(msg.value);\r\n                break;\r\n            }\r\n        }\r\n\r\n        // Every vistor can only download each file/seed once\r\n        require(!exist, \"You have already download the seed\");\r\n\r\n        // 90% of the chargeAmount will be given to the writer who uploads the seed, the remains will be stored in the contract\r\n        _uploader.transfer(_seed.chargeAmount*9/10);\r\n\r\n        // Refund the extra ether to the visitor\r\n        msg.sender.transfer(msg.value - _seed.chargeAmount);\r\n\r\n        // After downloading the seed, the visitor owns the seed as well\r\n        OwnerSeedsSummary[msg.sender].push(magnetItemsPublicInfo[_seedId].seedId);\r\n        SeedsOwnerSummary[magnetItemsPublicInfo[_seedId].seedId].push(msg.sender);\r\n        endorseableSeedsSummary[msg.sender].push(magnetItemsPublicInfo[_seedId].seedId);\r\n\r\n        emit SeedDownloaded(seedAmount, msg.sender, _seed.seedName, _seed.keyWords, _seed.seedDescription, _seed.chargeAmount, _seed.endorseAmount);\r\n        return magnetItemsSeedLinks[_seedId];\r\n    }\r\n\r\n\r\n    // function search(string memory _keyWords) public returns (uint[] memory) {\r\n\r\n    //     // require(keyMap[_keyWords].seedId > 0 && keyMap[_keyWords].seedId <= seedAmount, 'seed should be uploaded');\r\n\r\n    //     for (uint256 i=0; i < seedAmount; i++ ) {\r\n\r\n    //         SeedInfo memory _seed = magnetItems[i];\r\n\r\n    //         if (keccak256(abi.encodePacked(_seed.keyWords)) == keccak256(abi.encodePacked(_keyWords))) {\r\n\r\n    //             SearchResult[keyMap[_keyWords].keyWords].push(keyMap[_keyWords].seedId);\r\n    //             break;\r\n    //         }\r\n    //     }\r\n    //     return (SearchResult[_keyWords]);   \r\n    // }\r\n\r\n    /** A visitor can endorse a file/seed on the billboard                **/\r\n    /** Input:                                                            **/\r\n    /** _seedID: The index that points to the downloaded seed, should not **/ \r\n    /**          smaller than 0 or exceed the existing amount of seed     **/\r\n    function endorse(uint256 _seedId) public {\r\n\r\n        require(_seedId > 0 && _seedId <= seedAmount, 'The seed does not exist');\r\n        bool found = false;\r\n\r\n        // This for loop is used to contrain only the user, who has downloaded this seed, can endorse it\r\n\r\n        for (uint256 i = 0; i < endorseableSeedsSummary[msg.sender].length; i++) {\r\n\r\n            if (endorseableSeedsSummary[msg.sender][i] == _seedId) {\r\n                // The writer cannot endorse the seeds he/she uploads to the billboard\r\n                require((msg.sender) != (magnetItemsPublicInfo[_seedId].seedOwner), \"You cannot endorse your own torrent file.\" );\r\n                \r\n                // Constrain each user can endorse each seed only once\r\n                removeEndorsedSeeds(i);\r\n\r\n                // The seed owner receives the rewards when his/her seed has been endorsed\r\n                magnetItemsPublicInfo[_seedId].seedOwner.transfer(contractBalance()/100000000000);\r\n                magnetItemsPublicInfo[_seedId].endorseAmount ++;\r\n                found = true;\r\n\r\n                break;\r\n            }\r\n        }\r\n        require(found, \"Only the downloaded seeds can be endorsed, or you have already endorsed that seed\");\r\n    }\r\n\r\n    /** This function is designed to avoid a visitor endorsing the same   **/\r\n    /** seed more than once                                               **/\r\n    /** Input:                                                            **/\r\n    /** _seedID: The index that points to the downloaded seed, should not **/ \r\n    /**          smaller than 0 or exceed the existing amount of seed     **/\r\n    function removeEndorsedSeeds(uint256 index) internal {\r\n        uint lastIndex = endorseableSeedsSummary[msg.sender].length-1;\r\n        require (index <= lastIndex, \"Target index does not exist\");\r\n        // Swap the target seed and the last seed, and remove the target seed\r\n        uint temp = endorseableSeedsSummary[msg.sender][lastIndex];\r\n        endorseableSeedsSummary[msg.sender][lastIndex] = endorseableSeedsSummary[msg.sender][index];\r\n        endorseableSeedsSummary[msg.sender][index] = temp;\r\n        endorseableSeedsSummary[msg.sender].pop();\r\n    }\r\n\r\n\r\n    /** Check the balance in the smart contract **/\r\n    function contractBalance() public view returns (uint256 contractEth){\r\n\r\n        return (address(this).balance);\r\n    }\r\n\r\n    /** Check the owner of the designated seed                                   **/\r\n    /** Input:                                                                   **/\r\n    /** _seedID: The index that points to the designated seed                    **/\r\n    /** Output:                                                                  **/\r\n    /** SeedsOwnerSummary[_seedId]: The address of the writer that owns the seed **/\r\n    function checkSeedOwner(uint256 _seedId) public view returns (address[] memory) {\r\n\r\n        return (SeedsOwnerSummary[_seedId]);\r\n    }\r\n\r\n    /** Check the owner of the designated seed                                   **/\r\n    /** Output:                                                                  **/\r\n    /** OwnerSeedsSummary[msg.sender]: A 1-D array that contains all the IDs of  **/\r\n    /**                                the seeds that belong to the writer       **/\r\n    function checkUserSeeds() public view returns (uint[] memory) {\r\n\r\n        return (OwnerSeedsSummary[msg.sender]);\r\n    }\r\n\r\n    /** Check the balance in the writer's account **/\r\n    function checkSeedOwnerBalance() public view returns(uint256 SeedOwnerBalance) {\r\n\r\n        return (msg.sender.balance);\r\n    }\r\n\r\n\r\n}\r\n",
  "sourcePath": "E:/UBC/EECE571G/Magnet_Link_Billboard/src/contracts/MagnetLinkBillboard.sol",
  "compiler": {
    "name": "solc",
    "version": "0.7.6+commit.7338295f.Emscripten.clang"
  },
  "schemaVersion": "3.3.4",
  "updatedAt": "2021-04-03T03:57:39.721Z",
  "networkType": "ethereum",
  "devdoc": {
    "kind": "dev",
    "methods": {},
    "version": 1
  },
  "userdoc": {
    "kind": "user",
    "methods": {
      "checkSeedOwner(uint256)": {
        "notice": "SeedsOwnerSummary[_seedId]: The address of the writer that owns the seed *"
      },
      "checkSeedOwnerBalance()": {
        "notice": "Check the balance in the writer's account *"
      },
      "checkUserSeeds()": {
        "notice": "the seeds that belong to the writer       *"
      },
      "contractBalance()": {
        "notice": "Check the balance in the smart contract *"
      },
      "download(uint256)": {
        "notice": "A SeedDownloaded event                                            *"
      },
      "endorse(uint256)": {
        "notice": "smaller than 0 or exceed the existing amount of seed     *"
      },
      "upload(string,string,string,uint256,string)": {
        "notice": "A SeedUploaded event                                                    *"
      }
    },
    "version": 1
  }
}